{
  "contractName": "Item",
  "abi": [
    {
      "inputs": [
        {
          "internalType": "contract ItemManager",
          "name": "_parentContract",
          "type": "address"
        },
        {
          "internalType": "uint256",
          "name": "_priceInWei",
          "type": "uint256"
        },
        {
          "internalType": "uint256",
          "name": "_index",
          "type": "uint256"
        }
      ],
      "stateMutability": "nonpayable",
      "type": "constructor"
    },
    {
      "inputs": [],
      "name": "index",
      "outputs": [
        {
          "internalType": "uint256",
          "name": "",
          "type": "uint256"
        }
      ],
      "stateMutability": "view",
      "type": "function"
    },
    {
      "inputs": [],
      "name": "priceInWei",
      "outputs": [
        {
          "internalType": "uint256",
          "name": "",
          "type": "uint256"
        }
      ],
      "stateMutability": "view",
      "type": "function"
    },
    {
      "stateMutability": "payable",
      "type": "receive"
    }
  ],
  "bytecode": "0x608060405234801561001057600080fd5b506040516106a83803806106a8833981810160405281019061003291906100ce565b816000819055508060018190555082600260016101000a81548173ffffffffffffffffffffffffffffffffffffffff021916908373ffffffffffffffffffffffffffffffffffffffff1602179055506000600260006101000a81548160ff021916908315150217905550505050610199565b6000815190506100b38161016b565b92915050565b6000815190506100c881610182565b92915050565b6000806000606084860312156100e357600080fd5b60006100f1868287016100a4565b9350506020610102868287016100b9565b9250506040610113868287016100b9565b9150509250925092565b600061012882610141565b9050919050565b600061013a8261011d565b9050919050565b600073ffffffffffffffffffffffffffffffffffffffff82169050919050565b6000819050919050565b6101748161012f565b811461017f57600080fd5b50565b61018b81610161565b811461019657600080fd5b50565b610500806101a86000396000f3fe60806040526004361061002d5760003560e01c80632986c0e51461024e5780633c8da5881461027957610249565b36610249576000543414610076576040517f08c379a000000000000000000000000000000000000000000000000000000000815260040161006d90610370565b60405180910390fd5b60001515600260009054906101000a900460ff161515146100cc576040517f08c379a00000000000000000000000000000000000000000000000000000000081526004016100c390610390565b60405180910390fd5b6000600260019054906101000a900473ffffffffffffffffffffffffffffffffffffffff1673ffffffffffffffffffffffffffffffffffffffff163460015460405160240161011b91906103d0565b6040516020818303038152906040527f800fb83f000000000000000000000000000000000000000000000000000000007bffffffffffffffffffffffffffffffffffffffffffffffffffffffff19166020820180517bffffffffffffffffffffffffffffffffffffffffffffffffffffffff83818316178352505050506040516101a59190610359565b60006040518083038185875af1925050503d80600081146101e2576040519150601f19603f3d011682016040523d82523d6000602084013e6101e7565b606091505b505090508061022b576040517f08c379a0000000000000000000000000000000000000000000000000000000008152600401610222906103b0565b60405180910390fd5b6001600260006101000a81548160ff02191690831515021790555050005b600080fd5b34801561025a57600080fd5b506102636102a4565b60405161027091906103d0565b60405180910390f35b34801561028557600080fd5b5061028e6102aa565b60405161029b91906103d0565b60405180910390f35b60015481565b60005481565b60006102bb826103eb565b6102c581856103f6565b93506102d581856020860161041c565b80840191505092915050565b60006102ee601483610401565b91506102f98261044f565b602082019050919050565b6000610311601583610401565b915061031c82610478565b602082019050919050565b6000610334600f83610401565b915061033f826104a1565b602082019050919050565b61035381610412565b82525050565b600061036582846102b0565b915081905092915050565b60006020820190508181036000830152610389816102e1565b9050919050565b600060208201905081810360008301526103a981610304565b9050919050565b600060208201905081810360008301526103c981610327565b9050919050565b60006020820190506103e5600083018461034a565b92915050565b600081519050919050565b600081905092915050565b600082825260208201905092915050565b6000819050919050565b60005b8381101561043a57808201518184015260208101905061041f565b83811115610449576000848401525b50505050565b7f596f752073686f756c642066756c6c7920706179000000000000000000000000600082015250565b7f596f75206861766520616c726561647920506169640000000000000000000000600082015250565b7f5061796d656e74204661696c656421000000000000000000000000000000000060008201525056fea26469706673582212204a38435f131dc9c692ad1c4088bcef5b46d1b1b40aa30c97d403dc261c04da0b64736f6c63430008040033",
  "immutableReferences": {},
  "source": "// SPDX-License-Identifier: GPL-3.0\r\npragma solidity ^0.8.1;\r\n\r\nimport \"./ItemManager.sol\";\r\n\r\ncontract Item{\r\n    uint public priceInWei;\r\n    uint public index;\r\n    bool paid;\r\n    \r\n    ItemManager parentContract;\r\n    \r\n    constructor(ItemManager _parentContract,uint _priceInWei,uint _index){\r\n        priceInWei=_priceInWei;\r\n        index=_index;\r\n        parentContract=_parentContract;\r\n        paid=false;\r\n    }\r\n     \r\n    receive() external payable{\r\n        require(msg.value==priceInWei,\"You should fully pay\");\r\n        require(paid==false,\"You have already Paid\");\r\n        (bool success,)=address(parentContract).call{value:msg.value}(abi.encodeWithSignature(\"triggerPayment(uint256)\", index));\r\n        require(success,\"Payment Failed!\");\r\n        paid=true;\r\n    }\r\n}",
  "sourcePath": "D:\\Term\\Repos\\Blockchain\\Ethereum-Network\\SupplyChain\\contracts\\Item.sol",
  "compiler": {
    "name": "solc",
    "version": "0.8.4+commit.c7e474f2.Emscripten.clang"
  },
  "schemaVersion": "3.4.1",
  "updatedAt": "2021-06-09T09:43:49.340Z",
  "devdoc": {
    "kind": "dev",
    "methods": {},
    "version": 1
  },
  "userdoc": {
    "kind": "user",
    "methods": {},
    "version": 1
  }
}